{"address":"0xc67F40a69dAA060a404A8B8e50b943d163aCD92F","bytecode":"0x608060405234801561001057600080fd5b50615962806100206000396000f3fe608060405260043610620000fe5760003560e01c80636dec73981162000097578063a932492f1162000061578063a932492f1462000352578063ce3946961462000382578063e0f857bd14620003c6578063e2ce39e514620003f657620000fe565b80636dec7398146200028c5780637c5e279514620002c257806391898cb914620002f2578063956cc859146200032257620000fe565b806332cb6b0c11620000d957806332cb6b0c14620001b257806355756a6a14620001e2578063580e9ebb14620002185780635beb78d9146200024857620000fe565b8063089fe6aa146200010357806314145f9414620001335780632e0f26251462000182575b600080fd5b3480156200011057600080fd5b506200011b6200043a565b6040516200012a9190620026f3565b60405180910390f35b3480156200014057600080fd5b506200015f600480360381019062000159919062002789565b62000440565b604051620001799c9b9a9998979695949392919062002881565b60405180910390f35b3480156200018f57600080fd5b506200019a62000960565b604051620001a991906200298b565b60405180910390f35b348015620001bf57600080fd5b50620001ca6200096c565b604051620001d991906200298b565b60405180910390f35b620002006004803603810190620001fa919062002af9565b62000988565b6040516200020f919062002cba565b60405180910390f35b3480156200022557600080fd5b506200023062000ce4565b6040516200023f919062002f68565b60405180910390f35b3480156200025557600080fd5b506200027460048036038101906200026e919062002789565b620013ac565b604051620002839190620030d9565b60405180910390f35b620002aa6004803603810190620002a491906200312e565b62001a5c565b604051620002b991906200298b565b60405180910390f35b348015620002cf57600080fd5b50620002da62001e9d565b604051620002e991906200298b565b60405180910390f35b348015620002ff57600080fd5b506200030a62001ea7565b6040516200031991906200298b565b60405180910390f35b3480156200032f57600080fd5b506200033a62001eb1565b6040516200034991906200298b565b60405180910390f35b3480156200035f57600080fd5b506200036a62001edb565b6040516200037991906200298b565b60405180910390f35b3480156200038f57600080fd5b50620003ae6004803603810190620003a8919062003175565b62001ee6565b604051620003bd91906200298b565b60405180910390f35b348015620003d357600080fd5b50620003de62001fbd565b604051620003ed91906200298b565b60405180910390f35b3480156200040357600080fd5b506200042260048036038101906200041c9190620031bc565b62001fc8565b60405162000431919062002cba565b60405180910390f35b610bb881565b600160205280600052604060002060009150905080600001805462000465906200321d565b80601f016020809104026020016040519081016040528092919081815260200182805462000493906200321d565b8015620004e45780601f10620004b857610100808354040283529160200191620004e4565b820191906000526020600020905b815481529060010190602001808311620004c657829003601f168201915b505050505090806001018054620004fb906200321d565b80601f016020809104026020016040519081016040528092919081815260200182805462000529906200321d565b80156200057a5780601f106200054e576101008083540402835291602001916200057a565b820191906000526020600020905b8154815290600101906020018083116200055c57829003601f168201915b50505050509080600201805462000591906200321d565b80601f0160208091040260200160405190810160405280929190818152602001828054620005bf906200321d565b8015620006105780601f10620005e45761010080835404028352916020019162000610565b820191906000526020600020905b815481529060010190602001808311620005f257829003601f168201915b50505050509080600301805462000627906200321d565b80601f016020809104026020016040519081016040528092919081815260200182805462000655906200321d565b8015620006a65780601f106200067a57610100808354040283529160200191620006a6565b820191906000526020600020905b8154815290600101906020018083116200068857829003601f168201915b505050505090806004018054620006bd906200321d565b80601f0160208091040260200160405190810160405280929190818152602001828054620006eb906200321d565b80156200073c5780601f1062000710576101008083540402835291602001916200073c565b820191906000526020600020905b8154815290600101906020018083116200071e57829003601f168201915b50505050509080600501805462000753906200321d565b80601f016020809104026020016040519081016040528092919081815260200182805462000781906200321d565b8015620007d25780601f10620007a657610100808354040283529160200191620007d2565b820191906000526020600020905b815481529060010190602001808311620007b457829003601f168201915b505050505090806006018054620007e9906200321d565b80601f016020809104026020016040519081016040528092919081815260200182805462000817906200321d565b8015620008685780601f106200083c5761010080835404028352916020019162000868565b820191906000526020600020905b8154815290600101906020018083116200084a57829003601f168201915b5050505050908060070180546200087f906200321d565b80601f0160208091040260200160405190810160405280929190818152602001828054620008ad906200321d565b8015620008fe5780601f10620008d257610100808354040283529160200191620008fe565b820191906000526020600020905b815481529060010190602001808311620008e057829003601f168201915b5050505050908060080154908060090160009054906101000a900473ffffffffffffffffffffffffffffffffffffffff169080600a0160009054906101000a900473ffffffffffffffffffffffffffffffffffffffff169080600b015490508c565b670de0b6b3a764000081565b670de0b6b3a7640000620f424062000985919062003281565b81565b6000655af3107a4000341015620009d6576040517f08c379a0000000000000000000000000000000000000000000000000000000008152600401620009cd906200331c565b60405180910390fd5b600089896005670de0b6b3a7640000620f4240620009f5919062003281565b62000a0191906200336d565b60405162000a0f9062002638565b62000a1d93929190620033a5565b604051809103906000f08015801562000a3a573d6000803e3d6000fd5b509050600081905060006040518061018001604052808d81526020018c81526020018a81526020018b8152602001878152602001898152602001888152602001868152602001600081526020018373ffffffffffffffffffffffffffffffffffffffff1681526020013373ffffffffffffffffffffffffffffffffffffffff168152602001600081525090506000829080600181540180825580915050600190039060005260206000200160009091909190916101000a81548173ffffffffffffffffffffffffffffffffffffffff021916908373ffffffffffffffffffffffffffffffffffffffff16021790555080600160008473ffffffffffffffffffffffffffffffffffffffff1673ffffffffffffffffffffffffffffffffffffffff168152602001908152602001600020600082015181600001908162000b809190620035c2565b50602082015181600101908162000b989190620035c2565b50604082015181600201908162000bb09190620035c2565b50606082015181600301908162000bc89190620035c2565b50608082015181600401908162000be09190620035c2565b5060a082015181600501908162000bf89190620035c2565b5060c082015181600601908162000c109190620035c2565b5060e082015181600701908162000c289190620035c2565b5061010082015181600801556101208201518160090160006101000a81548173ffffffffffffffffffffffffffffffffffffffff021916908373ffffffffffffffffffffffffffffffffffffffff16021790555061014082015181600a0160006101000a81548173ffffffffffffffffffffffffffffffffffffffff021916908373ffffffffffffffffffffffffffffffffffffffff16021790555061016082015181600b015590505081935050505098975050505050505050565b60606000808054905067ffffffffffffffff81111562000d095762000d08620029b2565b5b60405190808252806020026020018201604052801562000d4657816020015b62000d3262002646565b81526020019060019003908162000d285790505b50905060005b600080549050811015620013a4576001600080838154811062000d745762000d73620036a9565b5b9060005260206000200160009054906101000a900473ffffffffffffffffffffffffffffffffffffffff1673ffffffffffffffffffffffffffffffffffffffff1673ffffffffffffffffffffffffffffffffffffffff1681526020019081526020016000206040518061018001604052908160008201805462000df7906200321d565b80601f016020809104026020016040519081016040528092919081815260200182805462000e25906200321d565b801562000e765780601f1062000e4a5761010080835404028352916020019162000e76565b820191906000526020600020905b81548152906001019060200180831162000e5857829003601f168201915b5050505050815260200160018201805462000e91906200321d565b80601f016020809104026020016040519081016040528092919081815260200182805462000ebf906200321d565b801562000f105780601f1062000ee45761010080835404028352916020019162000f10565b820191906000526020600020905b81548152906001019060200180831162000ef257829003601f168201915b5050505050815260200160028201805462000f2b906200321d565b80601f016020809104026020016040519081016040528092919081815260200182805462000f59906200321d565b801562000faa5780601f1062000f7e5761010080835404028352916020019162000faa565b820191906000526020600020905b81548152906001019060200180831162000f8c57829003601f168201915b5050505050815260200160038201805462000fc5906200321d565b80601f016020809104026020016040519081016040528092919081815260200182805462000ff3906200321d565b8015620010445780601f10620010185761010080835404028352916020019162001044565b820191906000526020600020905b8154815290600101906020018083116200102657829003601f168201915b505050505081526020016004820180546200105f906200321d565b80601f01602080910402602001604051908101604052809291908181526020018280546200108d906200321d565b8015620010de5780601f10620010b257610100808354040283529160200191620010de565b820191906000526020600020905b815481529060010190602001808311620010c057829003601f168201915b50505050508152602001600582018054620010f9906200321d565b80601f016020809104026020016040519081016040528092919081815260200182805462001127906200321d565b8015620011785780601f106200114c5761010080835404028352916020019162001178565b820191906000526020600020905b8154815290600101906020018083116200115a57829003601f168201915b5050505050815260200160068201805462001193906200321d565b80601f0160208091040260200160405190810160405280929190818152602001828054620011c1906200321d565b8015620012125780601f10620011e65761010080835404028352916020019162001212565b820191906000526020600020905b815481529060010190602001808311620011f457829003601f168201915b505050505081526020016007820180546200122d906200321d565b80601f01602080910402602001604051908101604052809291908181526020018280546200125b906200321d565b8015620012ac5780601f106200128057610100808354040283529160200191620012ac565b820191906000526020600020905b8154815290600101906020018083116200128e57829003601f168201915b50505050508152602001600882015481526020016009820160009054906101000a900473ffffffffffffffffffffffffffffffffffffffff1673ffffffffffffffffffffffffffffffffffffffff1673ffffffffffffffffffffffffffffffffffffffff168152602001600a820160009054906101000a900473ffffffffffffffffffffffffffffffffffffffff1673ffffffffffffffffffffffffffffffffffffffff1673ffffffffffffffffffffffffffffffffffffffff168152602001600b820154815250508282815181106200138b576200138a620036a9565b5b6020026020010181905250808060010191505062000d4c565b508091505090565b620013b662002646565b6000600160008473ffffffffffffffffffffffffffffffffffffffff1673ffffffffffffffffffffffffffffffffffffffff168152602001908152602001600020905060008390508073ffffffffffffffffffffffffffffffffffffffff166318160ddd6040518163ffffffff1660e01b8152600401602060405180830381865afa1580156200144a573d6000803e3d6000fd5b505050506040513d601f19601f82011682018060405250810190620014709190620036ef565b82600b0181905550600160008573ffffffffffffffffffffffffffffffffffffffff1673ffffffffffffffffffffffffffffffffffffffff16815260200190815260200160002060405180610180016040529081600082018054620014d5906200321d565b80601f016020809104026020016040519081016040528092919081815260200182805462001503906200321d565b8015620015545780601f10620015285761010080835404028352916020019162001554565b820191906000526020600020905b8154815290600101906020018083116200153657829003601f168201915b505050505081526020016001820180546200156f906200321d565b80601f01602080910402602001604051908101604052809291908181526020018280546200159d906200321d565b8015620015ee5780601f10620015c257610100808354040283529160200191620015ee565b820191906000526020600020905b815481529060010190602001808311620015d057829003601f168201915b5050505050815260200160028201805462001609906200321d565b80601f016020809104026020016040519081016040528092919081815260200182805462001637906200321d565b8015620016885780601f106200165c5761010080835404028352916020019162001688565b820191906000526020600020905b8154815290600101906020018083116200166a57829003601f168201915b50505050508152602001600382018054620016a3906200321d565b80601f0160208091040260200160405190810160405280929190818152602001828054620016d1906200321d565b8015620017225780601f10620016f65761010080835404028352916020019162001722565b820191906000526020600020905b8154815290600101906020018083116200170457829003601f168201915b505050505081526020016004820180546200173d906200321d565b80601f01602080910402602001604051908101604052809291908181526020018280546200176b906200321d565b8015620017bc5780601f106200179057610100808354040283529160200191620017bc565b820191906000526020600020905b8154815290600101906020018083116200179e57829003601f168201915b50505050508152602001600582018054620017d7906200321d565b80601f016020809104026020016040519081016040528092919081815260200182805462001805906200321d565b8015620018565780601f106200182a5761010080835404028352916020019162001856565b820191906000526020600020905b8154815290600101906020018083116200183857829003601f168201915b5050505050815260200160068201805462001871906200321d565b80601f01602080910402602001604051908101604052809291908181526020018280546200189f906200321d565b8015620018f05780601f10620018c457610100808354040283529160200191620018f0565b820191906000526020600020905b815481529060010190602001808311620018d257829003601f168201915b505050505081526020016007820180546200190b906200321d565b80601f016020809104026020016040519081016040528092919081815260200182805462001939906200321d565b80156200198a5780601f106200195e576101008083540402835291602001916200198a565b820191906000526020600020905b8154815290600101906020018083116200196c57829003601f168201915b50505050508152602001600882015481526020016009820160009054906101000a900473ffffffffffffffffffffffffffffffffffffffff1673ffffffffffffffffffffffffffffffffffffffff1673ffffffffffffffffffffffffffffffffffffffff168152602001600a820160009054906101000a900473ffffffffffffffffffffffffffffffffffffffff1673ffffffffffffffffffffffffffffffffffffffff1673ffffffffffffffffffffffffffffffffffffffff168152602001600b8201548152505092505050919050565b60008073ffffffffffffffffffffffffffffffffffffffff16600160008573ffffffffffffffffffffffffffffffffffffffff1673ffffffffffffffffffffffffffffffffffffffff16815260200190815260200160002060090160009054906101000a900473ffffffffffffffffffffffffffffffffffffffff1673ffffffffffffffffffffffffffffffffffffffff160362001b31576040517f08c379a000000000000000000000000000000000000000000000000000000000815260040162001b289062003771565b60405180910390fd5b6000600160008573ffffffffffffffffffffffffffffffffffffffff1673ffffffffffffffffffffffffffffffffffffffff1681526020019081526020016000209050600084905066556f963b97fe008260080154111562001bca576040517f08c379a000000000000000000000000000000000000000000000000000000000815260040162001bc190620037e3565b60405180910390fd5b60008173ffffffffffffffffffffffffffffffffffffffff166318160ddd6040518163ffffffff1660e01b8152600401602060405180830381865afa15801562001c18573d6000803e3d6000fd5b505050506040513d601f19601f8201168201806040525081019062001c3e9190620036ef565b9050600081670de0b6b3a7640000620f424062001c5c919062003281565b62001c68919062003805565b90506000670de0b6b3a76400008262001c8291906200336d565b90506000670de0b6b3a76400008862001c9c919062003281565b90508188111562001ce4576040517f08c379a000000000000000000000000000000000000000000000000000000000815260040162001cdb9062003890565b60405180910390fd5b6000670de0b6b3a76400006005670de0b6b3a7640000620f424062001d0a919062003281565b62001d1691906200336d565b8662001d23919062003805565b62001d2f91906200336d565b9050600062001d3f828b62001ee6565b90508034101562001d87576040517f08c379a000000000000000000000000000000000000000000000000000000000815260040162001d7e9062003902565b60405180910390fd5b3488600801600082825462001d9d919062003924565b9250508190555066556f963b97fe0088600801541062001e075762001dc28b62002008565b5060006005670de0b6b3a7640000620f424062001de0919062003281565b62001dec91906200336d565b905060008960080154905062001e048d838362002147565b50505b8673ffffffffffffffffffffffffffffffffffffffff166394bf804d84336040518363ffffffff1660e01b815260040162001e449291906200395f565b6020604051808303816000875af115801562001e64573d6000803e3d6000fd5b505050506040513d601f19601f8201168201806040525081019062001e8a9190620039c9565b5060019850505050505050505092915050565b651b48eb57e00081565b655af3107a400081565b6005670de0b6b3a7640000620f424062001ecc919062003281565b62001ed891906200336d565b81565b6611c37937e0800081565b60008064e8d4a51000838562001efd919062003924565b6611c37937e0800062001f11919062003281565b62001f1d91906200336d565b9050600064e8d4a51000856611c37937e0800062001f3c919062003281565b62001f4891906200336d565b905060646611c37937e0800062001f5f8362002448565b62001f6a8562002448565b62001f76919062003805565b64e8d4a51000651b48eb57e00062001f8f919062003281565b62001f9b919062003281565b62001fa791906200336d565b62001fb391906200336d565b9250505092915050565b66556f963b97fe0081565b6000818154811062001fd957600080fd5b906000526020600020016000915054906101000a900473ffffffffffffffffffffffffffffffffffffffff1681565b600080731f98431c8ad98523631ae4a59f267346ea31f98490508073ffffffffffffffffffffffffffffffffffffffff1663a167129584730d500b1d8e8ef31e21c99d1db9a6444d3adf1270610bb86040518463ffffffff1660e01b81526004016200207793929190620039fb565b6020604051808303816000875af115801562002097573d6000803e3d6000fd5b505050506040513d601f19601f82011682018060405250810190620020bd919062003a4f565b915060006c0100000000000000000000000090508273ffffffffffffffffffffffffffffffffffffffff1663f637731d826040518263ffffffff1660e01b81526004016200210c919062003a92565b600060405180830381600087803b1580156200212757600080fd5b505af11580156200213c573d6000803e3d6000fd5b505050505050919050565b620021688373c36442b4a4522e871399cd717abdd847ab11fe8884620024d6565b600073c36442b4a4522e871399cd717abdd847ab11fe8890506000604051806101600160405280730d500b1d8e8ef31e21c99d1db9a6444d3adf127073ffffffffffffffffffffffffffffffffffffffff168773ffffffffffffffffffffffffffffffffffffffff1610620021f257730d500b1d8e8ef31e21c99d1db9a6444d3adf1270620021f4565b865b73ffffffffffffffffffffffffffffffffffffffff168152602001730d500b1d8e8ef31e21c99d1db9a6444d3adf127073ffffffffffffffffffffffffffffffffffffffff168773ffffffffffffffffffffffffffffffffffffffff16106200225e578662002274565b730d500b1d8e8ef31e21c99d1db9a6444d3adf12705b73ffffffffffffffffffffffffffffffffffffffff168152602001610bb862ffffff1681526020017ffffffffffffffffffffffffffffffffffffffffffffffffffffffffffff2764c60020b8152602001620d89b460020b8152602001730d500b1d8e8ef31e21c99d1db9a6444d3adf127073ffffffffffffffffffffffffffffffffffffffff168773ffffffffffffffffffffffffffffffffffffffff161062002320578462002322565b855b8152602001730d500b1d8e8ef31e21c99d1db9a6444d3adf127073ffffffffffffffffffffffffffffffffffffffff168773ffffffffffffffffffffffffffffffffffffffff161062002376578562002378565b845b815260200160008152602001600081526020013073ffffffffffffffffffffffffffffffffffffffff1681526020014281525090506000806000808573ffffffffffffffffffffffffffffffffffffffff16638831645688876040518363ffffffff1660e01b8152600401620023ef919062003bd5565b60806040518083038185885af11580156200240e573d6000803e3d6000fd5b50505050506040513d601f19601f8201168201806040525081019062002435919062003c40565b9350935093509350505050505050505050565b60008064e8d4a510009050600064e8d4a5100090506000600190505b60148111620024cb5764e8d4a510008162002480919062003281565b85836200248e919062003281565b6200249a91906200336d565b91508183620024aa919062003924565b925060018210620024cb578080620024c29062003cb2565b91505062002464565b508192505050919050565b6000808473ffffffffffffffffffffffffffffffffffffffff1663095ea7b360e01b85856040516024016200250d92919062003cff565b604051602081830303815290604052907bffffffffffffffffffffffffffffffffffffffffffffffffffffffff19166020820180517bffffffffffffffffffffffffffffffffffffffffffffffffffffffff838183161783525050505060405162002579919062003d79565b6000604051808303816000865af19150503d8060008114620025b8576040519150601f19603f3d011682016040523d82523d6000602084013e620025bd565b606091505b5091509150818015620025ef5750600081511480620025ee575080806020019051810190620025ed9190620039c9565b5b5b62002631576040517f08c379a0000000000000000000000000000000000000000000000000000000008152600401620026289062003de2565b60405180910390fd5b5050505050565b611b288062003e0583390190565b604051806101800160405280606081526020016060815260200160608152602001606081526020016060815260200160608152602001606081526020016060815260200160008152602001600073ffffffffffffffffffffffffffffffffffffffff168152602001600073ffffffffffffffffffffffffffffffffffffffff168152602001600081525090565b600062ffffff82169050919050565b620026ed81620026d3565b82525050565b60006020820190506200270a6000830184620026e2565b92915050565b6000604051905090565b600080fd5b600080fd5b600073ffffffffffffffffffffffffffffffffffffffff82169050919050565b6000620027518262002724565b9050919050565b620027638162002744565b81146200276f57600080fd5b50565b600081359050620027838162002758565b92915050565b600060208284031215620027a257620027a16200271a565b5b6000620027b28482850162002772565b91505092915050565b600081519050919050565b600082825260208201905092915050565b60005b83811015620027f7578082015181840152602081019050620027da565b60008484015250505050565b6000601f19601f8301169050919050565b60006200282182620027bb565b6200282d8185620027c6565b93506200283f818560208601620027d7565b6200284a8162002803565b840191505092915050565b6000819050919050565b6200286a8162002855565b82525050565b6200287b8162002744565b82525050565b60006101808201905081810360008301526200289e818f62002814565b90508181036020830152620028b4818e62002814565b90508181036040830152620028ca818d62002814565b90508181036060830152620028e0818c62002814565b90508181036080830152620028f6818b62002814565b905081810360a08301526200290c818a62002814565b905081810360c083015262002922818962002814565b905081810360e083015262002938818862002814565b90506200294a6101008301876200285f565b6200295a61012083018662002870565b6200296a61014083018562002870565b6200297a6101608301846200285f565b9d9c50505050505050505050505050565b6000602082019050620029a260008301846200285f565b92915050565b600080fd5b600080fd5b7f4e487b7100000000000000000000000000000000000000000000000000000000600052604160045260246000fd5b620029ec8262002803565b810181811067ffffffffffffffff8211171562002a0e5762002a0d620029b2565b5b80604052505050565b600062002a2362002710565b905062002a318282620029e1565b919050565b600067ffffffffffffffff82111562002a545762002a53620029b2565b5b62002a5f8262002803565b9050602081019050919050565b82818337600083830152505050565b600062002a9262002a8c8462002a36565b62002a17565b90508281526020810184848401111562002ab15762002ab0620029ad565b5b62002abe84828562002a6c565b509392505050565b600082601f83011262002ade5762002add620029a8565b5b813562002af084826020860162002a7b565b91505092915050565b600080600080600080600080610100898b03121562002b1d5762002b1c6200271a565b5b600089013567ffffffffffffffff81111562002b3e5762002b3d6200271f565b5b62002b4c8b828c0162002ac6565b985050602089013567ffffffffffffffff81111562002b705762002b6f6200271f565b5b62002b7e8b828c0162002ac6565b975050604089013567ffffffffffffffff81111562002ba25762002ba16200271f565b5b62002bb08b828c0162002ac6565b965050606089013567ffffffffffffffff81111562002bd45762002bd36200271f565b5b62002be28b828c0162002ac6565b955050608089013567ffffffffffffffff81111562002c065762002c056200271f565b5b62002c148b828c0162002ac6565b94505060a089013567ffffffffffffffff81111562002c385762002c376200271f565b5b62002c468b828c0162002ac6565b93505060c089013567ffffffffffffffff81111562002c6a5762002c696200271f565b5b62002c788b828c0162002ac6565b92505060e089013567ffffffffffffffff81111562002c9c5762002c9b6200271f565b5b62002caa8b828c0162002ac6565b9150509295985092959890939650565b600060208201905062002cd1600083018462002870565b92915050565b600081519050919050565b600082825260208201905092915050565b6000819050602082019050919050565b600082825260208201905092915050565b600062002d2182620027bb565b62002d2d818562002d03565b935062002d3f818560208601620027d7565b62002d4a8162002803565b840191505092915050565b62002d608162002855565b82525050565b62002d718162002744565b82525050565b600061018083016000830151848203600086015262002d97828262002d14565b9150506020830151848203602086015262002db3828262002d14565b9150506040830151848203604086015262002dcf828262002d14565b9150506060830151848203606086015262002deb828262002d14565b9150506080830151848203608086015262002e07828262002d14565b91505060a083015184820360a086015262002e23828262002d14565b91505060c083015184820360c086015262002e3f828262002d14565b91505060e083015184820360e086015262002e5b828262002d14565b91505061010083015162002e7461010086018262002d55565b5061012083015162002e8b61012086018262002d66565b5061014083015162002ea261014086018262002d66565b5061016083015162002eb961016086018262002d55565b508091505092915050565b600062002ed2838362002d77565b905092915050565b6000602082019050919050565b600062002ef48262002cd7565b62002f00818562002ce2565b93508360208202850162002f148562002cf3565b8060005b8581101562002f56578484038952815162002f34858262002ec4565b945062002f418362002eda565b925060208a0199505060018101905062002f18565b50829750879550505050505092915050565b6000602082019050818103600083015262002f84818462002ee7565b905092915050565b600061018083016000830151848203600086015262002fac828262002d14565b9150506020830151848203602086015262002fc8828262002d14565b9150506040830151848203604086015262002fe4828262002d14565b9150506060830151848203606086015262003000828262002d14565b915050608083015184820360808601526200301c828262002d14565b91505060a083015184820360a086015262003038828262002d14565b91505060c083015184820360c086015262003054828262002d14565b91505060e083015184820360e086015262003070828262002d14565b9150506101008301516200308961010086018262002d55565b50610120830151620030a061012086018262002d66565b50610140830151620030b761014086018262002d66565b50610160830151620030ce61016086018262002d55565b508091505092915050565b60006020820190508181036000830152620030f5818462002f8c565b905092915050565b620031088162002855565b81146200311457600080fd5b50565b6000813590506200312881620030fd565b92915050565b600080604083850312156200314857620031476200271a565b5b6000620031588582860162002772565b92505060206200316b8582860162003117565b9150509250929050565b600080604083850312156200318f576200318e6200271a565b5b60006200319f8582860162003117565b9250506020620031b28582860162003117565b9150509250929050565b600060208284031215620031d557620031d46200271a565b5b6000620031e58482850162003117565b91505092915050565b7f4e487b7100000000000000000000000000000000000000000000000000000000600052602260045260246000fd5b600060028204905060018216806200323657607f821691505b6020821081036200324c576200324b620031ee565b5b50919050565b7f4e487b7100000000000000000000000000000000000000000000000000000000600052601160045260246000fd5b60006200328e8262002855565b91506200329b8362002855565b9250828202620032ab8162002855565b91508282048414831517620032c557620032c462003252565b5b5092915050565b7f496e73756666696369656e74206372656174696f6e2066656500000000000000600082015250565b600062003304601983620027c6565b91506200331182620032cc565b602082019050919050565b600060208201905081810360008301526200333781620032f5565b9050919050565b7f4e487b7100000000000000000000000000000000000000000000000000000000600052601260045260246000fd5b60006200337a8262002855565b9150620033878362002855565b9250826200339a57620033996200333e565b5b828204905092915050565b60006060820190508181036000830152620033c1818662002814565b90508181036020830152620033d7818562002814565b9050620033e860408301846200285f565b949350505050565b60008190508160005260206000209050919050565b60006020601f8301049050919050565b600082821b905092915050565b600060088302620034547fffffffffffffffffffffffffffffffffffffffffffffffffffffffffffffffff8262003415565b62003460868362003415565b95508019841693508086168417925050509392505050565b6000819050919050565b6000620034a36200349d620034978462002855565b62003478565b62002855565b9050919050565b6000819050919050565b620034bf8362003482565b620034d7620034ce82620034aa565b84845462003422565b825550505050565b600090565b620034ee620034df565b620034fb818484620034b4565b505050565b5b81811015620035235762003517600082620034e4565b60018101905062003501565b5050565b601f82111562003572576200353c81620033f0565b620035478462003405565b8101602085101562003557578190505b6200356f620035668562003405565b83018262003500565b50505b505050565b600082821c905092915050565b6000620035976000198460080262003577565b1980831691505092915050565b6000620035b2838362003584565b9150826002028217905092915050565b620035cd82620027bb565b67ffffffffffffffff811115620035e957620035e8620029b2565b5b620035f582546200321d565b6200360282828562003527565b600060209050601f8311600181146200363a576000841562003625578287015190505b620036318582620035a4565b865550620036a1565b601f1984166200364a86620033f0565b60005b8281101562003674578489015182556001820191506020850194506020810190506200364d565b8683101562003694578489015162003690601f89168262003584565b8355505b6001600288020188555050505b505050505050565b7f4e487b7100000000000000000000000000000000000000000000000000000000600052603260045260246000fd5b600081519050620036e981620030fd565b92915050565b6000602082840312156200370857620037076200271a565b5b60006200371884828501620036d8565b91505092915050565b7f546f6b656e206973206e6f74206c697374656400000000000000000000000000600082015250565b600062003759601383620027c6565b9150620037668262003721565b602082019050919050565b600060208201905081810360008301526200378c816200374a565b9050919050565b7f46756e64696e672068617320616c7265616479206265656e2072616973656400600082015250565b6000620037cb601f83620027c6565b9150620037d88262003793565b602082019050919050565b60006020820190508181036000830152620037fe81620037bc565b9050919050565b6000620038128262002855565b91506200381f8362002855565b92508282039050818111156200383a576200383962003252565b5b92915050565b7f4e6f7420656e6f75676820617661696c61626c6520737570706c790000000000600082015250565b600062003878601b83620027c6565b9150620038858262003840565b602082019050919050565b60006020820190508181036000830152620038ab8162003869565b9050919050565b7f496e636f72726563742076616c7565206f66204554482073656e740000000000600082015250565b6000620038ea601b83620027c6565b9150620038f782620038b2565b602082019050919050565b600060208201905081810360008301526200391d81620038db565b9050919050565b6000620039318262002855565b91506200393e8362002855565b925082820190508082111562003959576200395862003252565b5b92915050565b60006040820190506200397660008301856200285f565b62003985602083018462002870565b9392505050565b60008115159050919050565b620039a3816200398c565b8114620039af57600080fd5b50565b600081519050620039c38162003998565b92915050565b600060208284031215620039e257620039e16200271a565b5b6000620039f284828501620039b2565b91505092915050565b600060608201905062003a12600083018662002870565b62003a21602083018562002870565b62003a306040830184620026e2565b949350505050565b60008151905062003a498162002758565b92915050565b60006020828403121562003a685762003a676200271a565b5b600062003a788482850162003a38565b91505092915050565b62003a8c8162002724565b82525050565b600060208201905062003aa9600083018462003a81565b92915050565b62003aba81620026d3565b82525050565b60008160020b9050919050565b62003ad88162003ac0565b82525050565b6101608201600082015162003af7600085018262002d66565b50602082015162003b0c602085018262002d66565b50604082015162003b21604085018262003aaf565b50606082015162003b36606085018262003acd565b50608082015162003b4b608085018262003acd565b5060a082015162003b6060a085018262002d55565b5060c082015162003b7560c085018262002d55565b5060e082015162003b8a60e085018262002d55565b5061010082015162003ba161010085018262002d55565b5061012082015162003bb861012085018262002d66565b5061014082015162003bcf61014085018262002d55565b50505050565b60006101608201905062003bed600083018462003ade565b92915050565b60006fffffffffffffffffffffffffffffffff82169050919050565b62003c1a8162003bf3565b811462003c2657600080fd5b50565b60008151905062003c3a8162003c0f565b92915050565b6000806000806080858703121562003c5d5762003c5c6200271a565b5b600062003c6d87828801620036d8565b945050602062003c808782880162003c29565b935050604062003c9387828801620036d8565b925050606062003ca687828801620036d8565b91505092959194509250565b600062003cbf8262002855565b91507fffffffffffffffffffffffffffffffffffffffffffffffffffffffffffffffff820362003cf45762003cf362003252565b5b600182019050919050565b600060408201905062003d16600083018562002870565b62003d2560208301846200285f565b9392505050565b600081519050919050565b600081905092915050565b600062003d4f8262003d2c565b62003d5b818562003d37565b935062003d6d818560208601620027d7565b80840191505092915050565b600062003d87828462003d42565b915081905092915050565b7f5341000000000000000000000000000000000000000000000000000000000000600082015250565b600062003dca600283620027c6565b915062003dd78262003d92565b602082019050919050565b6000602082019050818103600083015262003dfd8162003dbb565b905091905056fe60806040523480156200001157600080fd5b5060405162001b2838038062001b28833981810160405281019062000037919062000546565b828281600390816200004a919062000821565b5080600490816200005c919062000821565b505050620000713382620000bb60201b60201c565b33600560006101000a81548173ffffffffffffffffffffffffffffffffffffffff021916908373ffffffffffffffffffffffffffffffffffffffff16021790555050505062000a3f565b600073ffffffffffffffffffffffffffffffffffffffff168273ffffffffffffffffffffffffffffffffffffffff1603620001305760006040517fec442f050000000000000000000000000000000000000000000000000000000081526004016200012791906200094d565b60405180910390fd5b62000144600083836200014860201b60201c565b5050565b600073ffffffffffffffffffffffffffffffffffffffff168373ffffffffffffffffffffffffffffffffffffffff16036200019e57806002600082825462000191919062000999565b9250508190555062000274565b60008060008573ffffffffffffffffffffffffffffffffffffffff1673ffffffffffffffffffffffffffffffffffffffff168152602001908152602001600020549050818110156200022d578381836040517fe450d38c0000000000000000000000000000000000000000000000000000000081526004016200022493929190620009e5565b60405180910390fd5b8181036000808673ffffffffffffffffffffffffffffffffffffffff1673ffffffffffffffffffffffffffffffffffffffff16815260200190815260200160002081905550505b600073ffffffffffffffffffffffffffffffffffffffff168273ffffffffffffffffffffffffffffffffffffffff1603620002bf57806002600082825403925050819055506200030c565b806000808473ffffffffffffffffffffffffffffffffffffffff1673ffffffffffffffffffffffffffffffffffffffff168152602001908152602001600020600082825401925050819055505b8173ffffffffffffffffffffffffffffffffffffffff168373ffffffffffffffffffffffffffffffffffffffff167fddf252ad1be2c89b69c2b068fc378daa952ba7f163c4a11628f55a4df523b3ef836040516200036b919062000a22565b60405180910390a3505050565b6000604051905090565b600080fd5b600080fd5b600080fd5b600080fd5b6000601f19601f8301169050919050565b7f4e487b7100000000000000000000000000000000000000000000000000000000600052604160045260246000fd5b620003e18262000396565b810181811067ffffffffffffffff82111715620004035762000402620003a7565b5b80604052505050565b60006200041862000378565b9050620004268282620003d6565b919050565b600067ffffffffffffffff821115620004495762000448620003a7565b5b620004548262000396565b9050602081019050919050565b60005b838110156200048157808201518184015260208101905062000464565b60008484015250505050565b6000620004a46200049e846200042b565b6200040c565b905082815260208101848484011115620004c357620004c262000391565b5b620004d084828562000461565b509392505050565b600082601f830112620004f057620004ef6200038c565b5b8151620005028482602086016200048d565b91505092915050565b6000819050919050565b62000520816200050b565b81146200052c57600080fd5b50565b600081519050620005408162000515565b92915050565b60008060006060848603121562000562576200056162000382565b5b600084015167ffffffffffffffff81111562000583576200058262000387565b5b6200059186828701620004d8565b935050602084015167ffffffffffffffff811115620005b557620005b462000387565b5b620005c386828701620004d8565b9250506040620005d6868287016200052f565b9150509250925092565b600081519050919050565b7f4e487b7100000000000000000000000000000000000000000000000000000000600052602260045260246000fd5b600060028204905060018216806200063357607f821691505b602082108103620006495762000648620005eb565b5b50919050565b60008190508160005260206000209050919050565b60006020601f8301049050919050565b600082821b905092915050565b600060088302620006b37fffffffffffffffffffffffffffffffffffffffffffffffffffffffffffffffff8262000674565b620006bf868362000674565b95508019841693508086168417925050509392505050565b6000819050919050565b600062000702620006fc620006f6846200050b565b620006d7565b6200050b565b9050919050565b6000819050919050565b6200071e83620006e1565b620007366200072d8262000709565b84845462000681565b825550505050565b600090565b6200074d6200073e565b6200075a81848462000713565b505050565b5b8181101562000782576200077660008262000743565b60018101905062000760565b5050565b601f821115620007d1576200079b816200064f565b620007a68462000664565b81016020851015620007b6578190505b620007ce620007c58562000664565b8301826200075f565b50505b505050565b600082821c905092915050565b6000620007f660001984600802620007d6565b1980831691505092915050565b6000620008118383620007e3565b9150826002028217905092915050565b6200082c82620005e0565b67ffffffffffffffff811115620008485762000847620003a7565b5b6200085482546200061a565b6200086182828562000786565b600060209050601f83116001811462000899576000841562000884578287015190505b62000890858262000803565b86555062000900565b601f198416620008a9866200064f565b60005b82811015620008d357848901518255600182019150602085019450602081019050620008ac565b86831015620008f35784890151620008ef601f891682620007e3565b8355505b6001600288020188555050505b505050505050565b600073ffffffffffffffffffffffffffffffffffffffff82169050919050565b6000620009358262000908565b9050919050565b620009478162000928565b82525050565b60006020820190506200096460008301846200093c565b92915050565b7f4e487b7100000000000000000000000000000000000000000000000000000000600052601160045260246000fd5b6000620009a6826200050b565b9150620009b3836200050b565b9250828201905080821115620009ce57620009cd6200096a565b5b92915050565b620009df816200050b565b82525050565b6000606082019050620009fc60008301866200093c565b62000a0b6020830185620009d4565b62000a1a6040830184620009d4565b949350505050565b600060208201905062000a396000830184620009d4565b92915050565b6110d98062000a4f6000396000f3fe608060405234801561001057600080fd5b50600436106100a95760003560e01c806370a082311161007157806370a08231146101685780638da5cb5b1461019857806394bf804d146101b657806395d89b41146101e6578063a9059cbb14610204578063dd62ed3e14610234576100a9565b806306fdde03146100ae578063095ea7b3146100cc57806318160ddd146100fc57806323b872dd1461011a578063313ce5671461014a575b600080fd5b6100b6610264565b6040516100c39190610c5b565b60405180910390f35b6100e660048036038101906100e19190610d16565b6102f6565b6040516100f39190610d71565b60405180910390f35b610104610319565b6040516101119190610d9b565b60405180910390f35b610134600480360381019061012f9190610db6565b610323565b6040516101419190610d71565b60405180910390f35b610152610352565b60405161015f9190610e25565b60405180910390f35b610182600480360381019061017d9190610e40565b61035b565b60405161018f9190610d9b565b60405180910390f35b6101a06103a3565b6040516101ad9190610e7c565b60405180910390f35b6101d060048036038101906101cb9190610e97565b6103c9565b6040516101dd9190610d71565b60405180910390f35b6101ee61046f565b6040516101fb9190610c5b565b60405180910390f35b61021e60048036038101906102199190610d16565b610501565b60405161022b9190610d71565b60405180910390f35b61024e60048036038101906102499190610ed7565b610524565b60405161025b9190610d9b565b60405180910390f35b60606003805461027390610f46565b80601f016020809104026020016040519081016040528092919081815260200182805461029f90610f46565b80156102ec5780601f106102c1576101008083540402835291602001916102ec565b820191906000526020600020905b8154815290600101906020018083116102cf57829003601f168201915b5050505050905090565b6000806103016105ab565b905061030e8185856105b3565b600191505092915050565b6000600254905090565b60008061032e6105ab565b905061033b8582856105c5565b610346858585610659565b60019150509392505050565b60006012905090565b60008060008373ffffffffffffffffffffffffffffffffffffffff1673ffffffffffffffffffffffffffffffffffffffff168152602001908152602001600020549050919050565b600560009054906101000a900473ffffffffffffffffffffffffffffffffffffffff1681565b6000600560009054906101000a900473ffffffffffffffffffffffffffffffffffffffff1673ffffffffffffffffffffffffffffffffffffffff163373ffffffffffffffffffffffffffffffffffffffff161461045b576040517f08c379a000000000000000000000000000000000000000000000000000000000815260040161045290610fe9565b60405180910390fd5b610465828461074d565b6001905092915050565b60606004805461047e90610f46565b80601f01602080910402602001604051908101604052809291908181526020018280546104aa90610f46565b80156104f75780601f106104cc576101008083540402835291602001916104f7565b820191906000526020600020905b8154815290600101906020018083116104da57829003601f168201915b5050505050905090565b60008061050c6105ab565b9050610519818585610659565b600191505092915050565b6000600160008473ffffffffffffffffffffffffffffffffffffffff1673ffffffffffffffffffffffffffffffffffffffff16815260200190815260200160002060008373ffffffffffffffffffffffffffffffffffffffff1673ffffffffffffffffffffffffffffffffffffffff16815260200190815260200160002054905092915050565b600033905090565b6105c083838360016107cf565b505050565b60006105d18484610524565b90507fffffffffffffffffffffffffffffffffffffffffffffffffffffffffffffffff81146106535781811015610643578281836040517ffb8f41b200000000000000000000000000000000000000000000000000000000815260040161063a93929190611009565b60405180910390fd5b610652848484840360006107cf565b5b50505050565b600073ffffffffffffffffffffffffffffffffffffffff168373ffffffffffffffffffffffffffffffffffffffff16036106cb5760006040517f96c6fd1e0000000000000000000000000000000000000000000000000000000081526004016106c29190610e7c565b60405180910390fd5b600073ffffffffffffffffffffffffffffffffffffffff168273ffffffffffffffffffffffffffffffffffffffff160361073d5760006040517fec442f050000000000000000000000000000000000000000000000000000000081526004016107349190610e7c565b60405180910390fd5b6107488383836109a6565b505050565b600073ffffffffffffffffffffffffffffffffffffffff168273ffffffffffffffffffffffffffffffffffffffff16036107bf5760006040517fec442f050000000000000000000000000000000000000000000000000000000081526004016107b69190610e7c565b60405180910390fd5b6107cb600083836109a6565b5050565b600073ffffffffffffffffffffffffffffffffffffffff168473ffffffffffffffffffffffffffffffffffffffff16036108415760006040517fe602df050000000000000000000000000000000000000000000000000000000081526004016108389190610e7c565b60405180910390fd5b600073ffffffffffffffffffffffffffffffffffffffff168373ffffffffffffffffffffffffffffffffffffffff16036108b35760006040517f94280d620000000000000000000000000000000000000000000000000000000081526004016108aa9190610e7c565b60405180910390fd5b81600160008673ffffffffffffffffffffffffffffffffffffffff1673ffffffffffffffffffffffffffffffffffffffff16815260200190815260200160002060008573ffffffffffffffffffffffffffffffffffffffff1673ffffffffffffffffffffffffffffffffffffffff1681526020019081526020016000208190555080156109a0578273ffffffffffffffffffffffffffffffffffffffff168473ffffffffffffffffffffffffffffffffffffffff167f8c5be1e5ebec7d5bd14f71427d1e84f3dd0314c0f7b2291e5b200ac8c7c3b925846040516109979190610d9b565b60405180910390a35b50505050565b600073ffffffffffffffffffffffffffffffffffffffff168373ffffffffffffffffffffffffffffffffffffffff16036109f85780600260008282546109ec919061106f565b92505081905550610acb565b60008060008573ffffffffffffffffffffffffffffffffffffffff1673ffffffffffffffffffffffffffffffffffffffff16815260200190815260200160002054905081811015610a84578381836040517fe450d38c000000000000000000000000000000000000000000000000000000008152600401610a7b93929190611009565b60405180910390fd5b8181036000808673ffffffffffffffffffffffffffffffffffffffff1673ffffffffffffffffffffffffffffffffffffffff16815260200190815260200160002081905550505b600073ffffffffffffffffffffffffffffffffffffffff168273ffffffffffffffffffffffffffffffffffffffff1603610b145780600260008282540392505081905550610b61565b806000808473ffffffffffffffffffffffffffffffffffffffff1673ffffffffffffffffffffffffffffffffffffffff168152602001908152602001600020600082825401925050819055505b8173ffffffffffffffffffffffffffffffffffffffff168373ffffffffffffffffffffffffffffffffffffffff167fddf252ad1be2c89b69c2b068fc378daa952ba7f163c4a11628f55a4df523b3ef83604051610bbe9190610d9b565b60405180910390a3505050565b600081519050919050565b600082825260208201905092915050565b60005b83811015610c05578082015181840152602081019050610bea565b60008484015250505050565b6000601f19601f8301169050919050565b6000610c2d82610bcb565b610c378185610bd6565b9350610c47818560208601610be7565b610c5081610c11565b840191505092915050565b60006020820190508181036000830152610c758184610c22565b905092915050565b600080fd5b600073ffffffffffffffffffffffffffffffffffffffff82169050919050565b6000610cad82610c82565b9050919050565b610cbd81610ca2565b8114610cc857600080fd5b50565b600081359050610cda81610cb4565b92915050565b6000819050919050565b610cf381610ce0565b8114610cfe57600080fd5b50565b600081359050610d1081610cea565b92915050565b60008060408385031215610d2d57610d2c610c7d565b5b6000610d3b85828601610ccb565b9250506020610d4c85828601610d01565b9150509250929050565b60008115159050919050565b610d6b81610d56565b82525050565b6000602082019050610d866000830184610d62565b92915050565b610d9581610ce0565b82525050565b6000602082019050610db06000830184610d8c565b92915050565b600080600060608486031215610dcf57610dce610c7d565b5b6000610ddd86828701610ccb565b9350506020610dee86828701610ccb565b9250506040610dff86828701610d01565b9150509250925092565b600060ff82169050919050565b610e1f81610e09565b82525050565b6000602082019050610e3a6000830184610e16565b92915050565b600060208284031215610e5657610e55610c7d565b5b6000610e6484828501610ccb565b91505092915050565b610e7681610ca2565b82525050565b6000602082019050610e916000830184610e6d565b92915050565b60008060408385031215610eae57610ead610c7d565b5b6000610ebc85828601610d01565b9250506020610ecd85828601610ccb565b9150509250929050565b60008060408385031215610eee57610eed610c7d565b5b6000610efc85828601610ccb565b9250506020610f0d85828601610ccb565b9150509250929050565b7f4e487b7100000000000000000000000000000000000000000000000000000000600052602260045260246000fd5b60006002820490506001821680610f5e57607f821691505b602082108103610f7157610f70610f17565b5b50919050565b7f4d696e742063616e206f6e6c792062652063616c6c656420627920746865206f60008201527f776e657200000000000000000000000000000000000000000000000000000000602082015250565b6000610fd3602483610bd6565b9150610fde82610f77565b604082019050919050565b6000602082019050818103600083015261100281610fc6565b9050919050565b600060608201905061101e6000830186610e6d565b61102b6020830185610d8c565b6110386040830184610d8c565b949350505050565b7f4e487b7100000000000000000000000000000000000000000000000000000000600052601160045260246000fd5b600061107a82610ce0565b915061108583610ce0565b925082820190508082111561109d5761109c611040565b5b9291505056fea26469706673582212204e428fa595ebc7024fa92e7cbba2ef6ff4d4a50760fe0e5396fff77b825b6d9064736f6c63430008180033a2646970667358221220bf02af6b208dd6b2829c20d6de94196f27aedcef85984d1cfbcfee64a8079ee564736f6c63430008180033","abi":[{"inputs":[],"name":"DECIMALS","outputs":[{"internalType":"uint256","name":"","type":"uint256"}],"stateMutability":"view","type":"function"},{"inputs":[],"name":"IDEACOIN_FUNDING_GOAL","outputs":[{"internalType":"uint256","name":"","type":"uint256"}],"stateMutability":"view","type":"function"},{"inputs":[],"name":"IDEATOKEN_CREATION_FEE","outputs":[{"internalType":"uint256","name":"","type":"uint256"}],"stateMutability":"view","type":"function"},{"inputs":[],"name":"INITIAL_PRICE","outputs":[{"internalType":"uint256","name":"","type":"uint256"}],"stateMutability":"view","type":"function"},{"inputs":[],"name":"INIT_SUPPLY","outputs":[{"internalType":"uint256","name":"","type":"uint256"}],"stateMutability":"view","type":"function"},{"inputs":[],"name":"K","outputs":[{"internalType":"uint256","name":"","type":"uint256"}],"stateMutability":"view","type":"function"},{"inputs":[],"name":"MAX_SUPPLY","outputs":[{"internalType":"uint256","name":"","type":"uint256"}],"stateMutability":"view","type":"function"},{"inputs":[{"internalType":"address","name":"","type":"address"}],"name":"addressToIdeaTokenMapping","outputs":[{"internalType":"string","name":"name","type":"string"},{"internalType":"string","name":"symbol","type":"string"},{"internalType":"string","name":"description","type":"string"},{"internalType":"string","name":"tokenImageUrl","type":"string"},{"internalType":"string","name":"productUrl","type":"string"},{"internalType":"string","name":"categories","type":"string"},{"internalType":"string","name":"productScreenshotUrl","type":"string"},{"internalType":"string","name":"twitterUrl","type":"string"},{"internalType":"uint256","name":"fundingRaised","type":"uint256"},{"internalType":"address","name":"tokenAddress","type":"address"},{"internalType":"address","name":"creatorAddress","type":"address"},{"internalType":"uint256","name":"tokenCurrentSupply","type":"uint256"}],"stateMutability":"view","type":"function"},{"inputs":[{"internalType":"address","name":"ideaTokenAddress","type":"address"},{"internalType":"uint256","name":"tokenQty","type":"uint256"}],"name":"buyIdeaToken","outputs":[{"internalType":"uint256","name":"","type":"uint256"}],"stateMutability":"payable","type":"function"},{"inputs":[{"internalType":"uint256","name":"currentSupply","type":"uint256"},{"internalType":"uint256","name":"tokensToBuy","type":"uint256"}],"name":"calculateCost","outputs":[{"internalType":"uint256","name":"","type":"uint256"}],"stateMutability":"pure","type":"function"},{"inputs":[{"internalType":"string","name":"name","type":"string"},{"internalType":"string","name":"symbol","type":"string"},{"internalType":"string","name":"imageUrl","type":"string"},{"internalType":"string","name":"description","type":"string"},{"internalType":"string","name":"categories","type":"string"},{"internalType":"string","name":"productScreenshotUrl","type":"string"},{"internalType":"string","name":"productUrl","type":"string"},{"internalType":"string","name":"twitterUrl","type":"string"}],"name":"createIdeaToken","outputs":[{"internalType":"address","name":"","type":"address"}],"stateMutability":"payable","type":"function"},{"inputs":[],"name":"getAllIdeaTokens","outputs":[{"components":[{"internalType":"string","name":"name","type":"string"},{"internalType":"string","name":"symbol","type":"string"},{"internalType":"string","name":"description","type":"string"},{"internalType":"string","name":"tokenImageUrl","type":"string"},{"internalType":"string","name":"productUrl","type":"string"},{"internalType":"string","name":"categories","type":"string"},{"internalType":"string","name":"productScreenshotUrl","type":"string"},{"internalType":"string","name":"twitterUrl","type":"string"},{"internalType":"uint256","name":"fundingRaised","type":"uint256"},{"internalType":"address","name":"tokenAddress","type":"address"},{"internalType":"address","name":"creatorAddress","type":"address"},{"internalType":"uint256","name":"tokenCurrentSupply","type":"uint256"}],"internalType":"struct IdeaFactory.ideaToken[]","name":"","type":"tuple[]"}],"stateMutability":"view","type":"function"},{"inputs":[{"internalType":"address","name":"ideaTokenAddress","type":"address"}],"name":"getIdeaToken","outputs":[{"components":[{"internalType":"string","name":"name","type":"string"},{"internalType":"string","name":"symbol","type":"string"},{"internalType":"string","name":"description","type":"string"},{"internalType":"string","name":"tokenImageUrl","type":"string"},{"internalType":"string","name":"productUrl","type":"string"},{"internalType":"string","name":"categories","type":"string"},{"internalType":"string","name":"productScreenshotUrl","type":"string"},{"internalType":"string","name":"twitterUrl","type":"string"},{"internalType":"uint256","name":"fundingRaised","type":"uint256"},{"internalType":"address","name":"tokenAddress","type":"address"},{"internalType":"address","name":"creatorAddress","type":"address"},{"internalType":"uint256","name":"tokenCurrentSupply","type":"uint256"}],"internalType":"struct IdeaFactory.ideaToken","name":"","type":"tuple"}],"stateMutability":"nonpayable","type":"function"},{"inputs":[{"internalType":"uint256","name":"","type":"uint256"}],"name":"ideaTokenAddresses","outputs":[{"internalType":"address","name":"","type":"address"}],"stateMutability":"view","type":"function"},{"inputs":[],"name":"poolFee","outputs":[{"internalType":"uint24","name":"","type":"uint24"}],"stateMutability":"view","type":"function"}]}